:020000040000FA
:10000000FC7F00200D060000FD0500000106000039
:1000100000000000000000000000000000000000E0
:1000200000000000000000000000000005060000C5
:100030000000000000000000090600006507000045
:1000400010B5064C2378002B07D1054B002B02D0AE
:10005000044800E000BF0123237010BD5C000020B5
:10006000000000000819000008B5084B002B03D061
:100070000748084900E000BF07480368002B03D089
:10008000064B002B00D0984708BDC046000000007A
:100090000819000060000020580000200000000047
:1000A000154A164B1178002909D115491878097895
:1000B0004118C9B21970802012498002C8611178B4
:1000C0000131C9B211701978F02902D819780929BB
:1000D00009D80B4908784042C0B2087018780978EE
:1000E0004118C9B2197012781B789A4203D1802244
:1000F000044B9202DA617047780000200100002072
:10010000000000200044004110B5C3699C07FCD4E6
:1001100003680224A3430360C46901231C42FBD18A
:100120000468234303600368DC07FCD4C46901232B
:100130001C42FBD1C469DC401C42F7D1084B1A4376
:100140000260C3695A07FCD4C0239B0243608181CB
:10015000C3699C07FCD4036802221343036010BDEB
:1001600004000040037EDA07FCD5018570470000DB
:10017000027E01235107FBD5428B1A4207D1428BE5
:10018000DA401A4203D1428B92081A4202D0034B42
:1001900001221A70008DC0B27047C046790000205D
:1001A00070B50368041C988B1A1C0821FF320842A2
:1001B00026D0802099839872112353704021144BCC
:1001C000917150715E68134DC0202E40800506432A
:1001D0005E605E693540284358610F4818600F48DB
:1001E00018615D680E4828408025AD02284358609C
:1001F0005868800B8003586000235171237105E01B
:10020000137ADA0602D5201C00F0E6FA207970BDD8
:1002100098010020FFFFFF8F9800002018010020A8
:10022000FF3F00F0002303714371044B01608360C2
:100230000B78022213430B707047C046A1010000E7
:1002400038B5364B2021DA6901200A43DA61344B94
:1002500006241A7802431A70324B0F221978914300
:1002600019701978214319702F490C7820430870B0
:1002700019780A401A701A7860210A431A702B4BB9
:100280002B4A5A805A7852B2002AFBDB294B0121B3
:100290001A780A431A709A78D107FCD42648026863
:1002A000510B1F221140914200D1052111408C01B8
:1002B0001D8D22492940214319850468A10C0A405B
:1002C0001F2A00D11D221C8D1F210A408C4322436E
:1002D0001A8502680721D20D0A408A4200D1032202
:1002E0000A40188D1103164A02400A431A851978EC
:1002F0007F220A401A701A78042112480A431A70A1
:1003000058621A890C218A431A811A8901218A4369
:100310001A810021802201F076F938BD00040040E6
:10032000584400413C44004159440041000C004005
:100330000640000000500041246080003FF8FFFFAD
:10034000FF8FFFFF98010020F7B5141C1F4A5F01C3
:1003500001971D1CD319061C5869271C4000400F2B
:1003600003301033C74006D00F1C80225968120694
:100370000A435A6009E02F1C7B1E9F41144BBF01AA
:10038000FF18381C221C01F035F901990F48083577
:1003900042181761131C5269A104920B890C920335
:1003A0000A435A6159690B4A0A405A616B01F318B2
:1003B0000222DA715979802252420A435A716B0142
:1003C000F318DB799A07FAD5201CFEBD98010020AE
:1003D00018010020FF3F00F0F8B51A4E051C3378D5
:1003E000141C002B12D1184B184A1A645A6C920B29
:1003F00092035A64586C164A02405A64A2235B0066
:10040000EA5C40200243EA54012333704827FF3757
:10041000EA5D0123134012D00B4B5A6C9204920CEC
:10042000A24202D25C6CA404A40C081C221C074942
:1004300001F0E0F80123EB550023337000E01C1CB1
:10044000201CF8BD7A00002098010020D800002070
:10045000FF3F00F0FF3083792022002900D11022D5
:100460001343837170470000084BFF305A69920BA9
:1004700092035A6102230372827980235B42134301
:100480008371037A9A07FCD57047C0469801002013
:1004900080235B421943C9B28172704770B5A023B3
:1004A00003225B00C254134B134A5C6CC0211440FE
:1004B00089050C4346255C64FF35402444550F4DA7
:1004C00030261D6490256D0046555D6B154029430F
:1004D000922559636D0080214155094D1D63B0255A
:1004E0006D0044555C6F22405A67B2235B00C154D3
:1004F00070BDC04698010020FFFFFF8FD80000208C
:1005000058010020024B5B785BB2002BFADB70478E
:10051000000C0040024BDB68DA06FBD57047C04692
:1005200000080040F8B52A4B1E2259689143022268
:1005300011435960274B28491E1C9982998A0A4306
:100540009A82F3680227234C3B42FAD0234D0123C1
:10055000AB60FFF7D7FF224B6B60FFF7D3FF82231F
:10056000DB016B80FFF7CEFFA38C80229343A38433
:10057000FFF7D0FF1B4BE362FFF7CCFFA38C1A4AB7
:100580001343A384FFF7C6FFA38C1F43A784F3681C
:100590001A06FCD50F4BDB685A06F8D50024FFF786
:1005A000B9FFAC60FFF7AEFF104B6B60FFF7AAFF1F
:1005B0000F4B104AC0215A600F4A0906106A000208
:1005C000000A0143116207229C601A60F8BDC04610
:1005D00000400041000800400C060000000C0040F4
:1005E00001050100B805FF7D040A000000070300B3
:1005F00010E000E0E703000000ED00E00EBEFEE7C3
:100600000DBEFEE705BEFEE702BEFEE70E4A0F483E
:1006100038B5824204D10E4A0E4B93420ED10AE005
:100620000D4C9442F7D00023D1188842F3D9E558F5
:1006300004330D60F8E700F011F804E09342FAD2B9
:10064000002102C3FAE7FEE7000000205C00002062
:10065000A80300205C0000200C19000038B5344BC2
:100660001A681C1C013221D0324A191D1160D9B2FE
:1006700000291BD1304A1078012210402F4A0AD19C
:1006800015682F498D4201D110600FE011602D498E
:1006900001390029FCD11160226882F30888FF2209
:1006A0009343294A9360224B5B681847FFF73AFF50
:1006B00062B600F0CDFD00F05BF8244B8022920280
:1006C00023499A6008220A602249041C0A60802299
:1006D00012059A609A61204B204AC0215A601A4A3A
:1006E0000906106A0002000A0143116200229A60A2
:1006F00007221A60A368201C9847194B002801D0D4
:1007000001221A701A78002A05D0002000F094FA0D
:1007100000F01AFBFCE71B78002BEBD100F00CFE7D
:100720000028E7D0012000F087FA00F00DFBFCE77D
:10073000002000001802002038040040FC7F002048
:100740003581730748E8010000ED00E000440041F6
:10075000884400419844004110E000E0E7030000B5
:100760007B00002008B5FFF79BFC00F0C9FA08BD2C
:1007700010B5054B054C2360FFF762FD201C216876
:10078000FFF750FD201C10BD005000411C0200204E
:1007900070B5051CC0B0081C161C0C1C00F03BFFFB
:1007A00040006A460323023053701070760801231C
:1007B000E218013A11785A00002906D1281C69462E
:1007C0000023FFF7C1FD40B070BDB342F6DA6846C2
:1007D00081520133ECE70000F7B5BA4A0468137898
:1007E000B949271CFF37051C102038720B7053784D
:1007F000B648B74E037093783380D17833880902B6
:100800000B4333801179B34B198051791888090251
:10081000084318809079B0490880D279088812027C
:1008200002430A8040227A71A84F3A78A64F1202FA
:1008300038780F1C0243A9488446181C624500D131
:10084000C2E020DC802149008A4200D16EE109DC4F
:10085000812A00D192E0822A00D195E0802A00D03E
:1008600064E18BE081235B009A4200D1CFE000DAA3
:1008700058E1C0239B009A4200D157E1984B9A421D
:1008800000D14FE152E190231B019A4269D015DC5F
:10089000D023DB009A4222D088231B019A4269D0E0
:1008A000A023DB009A4200D040E1201CFFF7DCFDD2
:1008B0003188286889B2FFF7EBFD3BE1894B9A420A
:1008C00000D12FE100DC31E1874B9A4200D11DE1DC
:1008D000864B9A4200D029E133886B7122E133883C
:1008E0001B0A012B08D10B8812222868934201D8D9
:1008F0000A8892B27E4911E133881B0A022B08D183
:100900000B8843222868934201D80A8892B2794919
:1009100004E133881B0A032B00D007E13388DBB2E4
:10092000012B17D0002B07D0022B00D0FEE00A8845
:100930002868D2B2704911E0042201A86F4900F082
:1009400059FE3B8804222868934201D83A8892B223
:1009500001A9E3E00A8828686949D2B2FFF718FFC5
:10096000E8E03388201C2B71FFF77EFD201CFFF789
:1009700095FDDFE0291C01C90122CFE06149002378
:100980000B8028680222CAE05E4900220A8018888B
:10099000502210405C4A10701E880F203040188092
:1009A0001888032800D9C1E012781B8808335B013E
:1009B000E418A379002A01D09B0600E0DB06DB0FD8
:1009C0000B8028680222A9E019887F2291434E4AB1
:1009D000C9B2117018880F2101401980318800298F
:1009E00000D0A3E01988002900D19FE019880329CD
:1009F00000D99BE012781B8808335B01E318002ABA
:100A000002D020225A718DE0102159718AE00288AB
:100A10007F239A433C4BD2B21A7001880F220A40BE
:100A200002803288002A00D080E00288002A00D1AB
:100A30007CE00288032A00D978E01B78002B1FD0C5
:100A4000038808335B01E3189B799A066AD503880B
:100A5000202208335B01E3181A71038808335B0115
:100A6000E318DB795F065DD50388402208335B011C
:100A7000E318DA710388022208335B01E3181EE0F1
:100A8000038808335B01E3189B79D9064AD50388AC
:100A9000102208335B01E3181A71038808335B01E5
:100AA000E318DB799A063DD50388202208335B01E1
:100AB000E318DA710388012208335B01E3181A7125
:100AC00030E0C046980000207D0000208200002019
:100AD0008400002086000020800000200203000027
:100AE0000103000021200000A121000021220000BC
:100AF0005C160000040000204C1600003C160000AC
:100B0000401600007E0000207C0000200B88082298
:100B10002868934201D80A8892B207490023FFF758
:100B200013FC07E0201CFFF79FFC03E0201C0121C1
:100B3000FFF790FCF7BDC0464800002007B5054B05
:100B40000122019001A91868131CFFF7FDFB012089
:100B50000EBDC0461C02002013B5054B6C46073481
:100B60001868211C0122FFF737FC207816BDC0460B
:100B70001C02002010B5074C201CFFF711FB031CC2
:100B80000020834205D022684823FF33D05C012334
:100B9000184010BD1C02002010B5054A0C1C031C97
:100BA000191C10680123221CFFF7CEFB201C10BD6E
:100BB0001C02002070B5084C061C201C0D1CFFF701
:100BC000EFFA0023984205D02068311C2A1CFFF759
:100BD00003FC031C181C70BD1C020020F8B50C4C53
:100BE000051C201C0E1CFFF7DBFA0023271C341CFD
:100BF00098420AD0002C07D0291C221C3868FFF725
:100C0000EBFB241A2D18F5E7331C181CF8BDC04661
:100C10001C02002008B5031C081C111C9847044B3B
:100C2000802212055A61034B64221A8008BDC04617
:100C3000004400418C000020012805D1054B064AE4
:100C40001A60064B187004E0002802D1044A014BD8
:100C50001A6070478C02002090160000940000205B
:100C6000DC16000030B50A1C1C4985B00978031C4D
:100C700000292AD0042A01D1006804E0022A01D107
:100C8000008800E00078520004A98B180B3B9C1AE6
:100C9000A3420BD00F210140092902D83025294356
:100CA00000E0373119700009013BF1E701A9302359
:100CB0000B7078234B700A208B1898700D20D87019
:100CC000074B04321B68D86803E005490968C86807
:100CD000191CFFF79FFF05B030BDC04688000020FB
:100CE0008C02002072B6EFF30883044A1360036895
:100CF00083F30888436818477047C0469002002075
:100D00000D4B1A88002A09D01A88013A92B21A802B
:100D1000002A03D18022094B12059A61084B1A88D8
:100D2000002A08D01A88013A92B21A80002A02D109
:100D3000044B08221A6070478C00002000440041D8
:100D40008A00002098440041F0B591B008A9CE4A2D
:100D50000B1C31CA31C351CA51C360CA60C3CB4BEB
:100D6000CB489A687A255203520F92005258C949CB
:100D700002609C68A4B262430C60C74900240A6008
:100D8000C64A1460C64C2570C64CC74D2368281C43
:100D90001B6940219847002805D0C44B08221A60DF
:100DA000C34B64221A80C34B00221860C24B1D60E3
:100DB000C24BC24DBF4F1A602A683B689A42E3D2C9
:100DC000BD4B1B681A78FF2A00D120E2232A00D0ED
:100DD000F7E1BB4E3378002B06D0B24BB9491B6804
:100DE0000222D868FFF716FFAD4B1B78532B3FD17B
:100DF0003B682A6893421ED9AF4801322A609A1A8A
:100E0000B14B01681B6801310160B04E9A4201D2BA
:100E1000326000E03360A14832680068049000F05E
:100E2000E9FB336829685A182A60A34A1668F11842
:100E30001160A74A13702B68013B2B609E4B1A6808
:100E4000013A1A60A24BA04A1B7811688B420DD25E
:100E500022689248C91A006892699047002805D014
:100E6000924B08221A60924B64221A80C04696E187
:100E7000522B0ED18948944A2368006811685B6937
:100E800003909847934B802212055A616422924B3B
:100E90000DE04F2B05D1814B8B4A1B6812681A70ED
:100EA0007DE1482B05D17D4B874A1B6812681A806B
:100EB00075E1572B05D1794B834A1B6812681A607C
:100EC0006DE16F2B03D1754B0121186807E0682B8A
:100ED00008D1724B7C481B6802211B880360FFF716
:100EE000C1FE5CE1772B06D16C4B77481B6804216F
:100EF0001B680360F3E7472B13D1734B1868FFF7A8
:100F0000F1FE764B1B6883F3088862B6744B1B783E
:100F1000002B00D143E1634B06201B681B689847F8
:100F20003DE1542B04D1012333705E4B1B6864E018
:100F30004E2B0CD13378002B06D15A4B61491B68DC
:100F40000222D868FFF766FE0023337027E1562B94
:100F500057D123686349D8680122FFF75BFE2368F5
:100F60006149D8680322FFF755FE604D2368291CAC
:100F7000D8680122FFF74EFE23685D49D8680D222C
:100F8000FFF748FE2368291CD8680122FFF742FEBC
:100F9000494F4A4D5749002339602B603A1C281CA1
:100FA00013685E1C16601B780593002B03D0036842
:100FB00001330360F4E73B4E2A683368D868FFF7D3
:100FC00029FE33684949D8680122FFF723FE0599B5
:100FD000296049493960384A1368581C10601B78E9
:100FE000002B04D0354B1A6801321A60F3E73368DE
:100FF0002A68D868FFF70EFE3368D86831490222A4
:10100000CBE0314A582B17D1214E234D3668136857
:101010002A68B10093420AD21C4D5808E86137484B
:1010200028801A4D287DC607FBD55B18F2E71D4BBB
:1010300033491B68D868AFE0592B00D07DE01268B7
:10104000164B3049002A02D11B680B6070E00F4D2F
:10105000086819686B680D4E8025AB439208736071
:10106000002A65D0284B094D2B80084E337DDD07C3
:10107000FBD50023064D2D680195AD08AB4247D343
:10108000224D024E35804AE07016000000400041BB
:10109000440200203C020020380200208802002088
:1010A000340200208C0200204802002094440041B9
:1010B0008A0000202C020020300200204002002084
:1010C00088000020D0160000940200209802002022
:1010D00028020020004400418C00002090020020E3
:1010E00094000020AC160000D5160000AE160000DB
:1010F000F8160000B0160000BC16000002A5FFFFA5
:10110000C51600009000002044A5FFFF04A5FFFFC6
:101110009342B5D09D00465901334E51AAE7404E47
:10112000357DEE07FBD59D0049194019D21A97E786
:101130003C4B3D491B68D8682EE05A2B2FD13B4BC6
:1011400017681D680026EF19BD4206D02878311CAB
:1011500000F014F90135061CF6E7324B34491B68E0
:101160000122D868FFF756FD07230F223240111CD9
:1011700036093031092A00DD07311820C0186A46C7
:101180008154013BF1D2236806A9D8680822FFF7F1
:1011900041FD23682749D8680322FFF73BFD264B12
:1011A0007A221A70254B00221A60254B1B78934235
:1011B0002DD01C4B23491B680122D868FFF72AFD5C
:1011C00025E0111C3039C8B21C4B092804D81D6811
:1011D0002A01114319601AE0111C4139052903D86D
:1011E0001E68373A310106E0111C6139052904D81F
:1011F0001868573A01010A4308E02C2A03D10B4A28
:101200001968116001E00C490A7000221A600E4B47
:101210001A6801321A600D4B1A680132C9E5C046DE
:10122000004000418C020020C91600008802002006
:10123000CD160000CF1600003402002094020020DA
:1012400088000020D3160000400200203002002059
:1012500010B51C4B01201A78022402431A701A4B55
:101260000F22197891431970197821431970174981
:101270000C782043087019780A401A701A782021D7
:101280000A431A70124B04211A6A0A431A62114B5C
:10129000114A5A805A7852B2002AFBDBC4220F4806
:1012A0000F499203FEF730FF0E4A002313700E4AD7
:1012B00013700E4A13700E4A13700E4A13700E4AC2
:1012C000137010BD4A440041354400414B44004175
:1012D00000040040000C00401440000000080042E0
:1012E0002AF600009C020020230300209D0200201B
:1012F000A0020020240300202103002008B5C1B271
:101300000248FEF72FFF012008BDC046000800423A
:10131000024B187E4007C00F7047C04600080042CD
:1013200008B5FFF7F5FF0028FBD00248FEF720FFC5
:1013300008BDC0460008004208B5FFF7E9FF0023DA
:10134000984205D0FFF7ECFF031C233B5A42534160
:10135000181C08BD70B5041C0D1C4618B44204D0FE
:101360002078FFF7CBFF0134F8E7281C70BD10B5DB
:10137000041CFFF7D5FF2070012010BD0B0A584058
:10138000034B4000C05A0902484080B27047C04633
:1013900006170000F7B50024051C0F1C261CBC42D4
:1013A00020D0FFF7BDFF114BC0B21B780190002B7E
:1013B0001AD1311CFFF7E2FF0D4B061C1A88002AD8
:1013C00004D10C4A11782A1C002907D001996A1C03
:1013D0002970802F02D11988013919800134A4B2F3
:1013E000151CDCE7301C00E00120FEBD21030020BD
:1013F0009E02002022030020F0B53E4E85B0002260
:1014000003900C1C32703C4B914201D1012201E04F
:101410003A490C801A707F231C4201D080349C43CF
:10142000FFF77EFF3378C0B2002B07D00025357060
:10143000FFF776FF3378C0B2AB4236D1432803D0F2
:10144000712853D01528EBD1012300930120FFF719
:1014500055FF0098FFF752FF00998025C843C0B29E
:10146000FFF74CFF039B00270293244A1388002BAD
:101470001DD1214901930978002918D10198FFF75E
:101480003DFF391C0198FFF779FF013D071C002D36
:10149000EBD1000AC0B2FFF731FFF8B2FFF72EFF21
:1014A000FFF73EFF3378002B0AD035701FE002991A
:1014B000013B09781380029B019101330293DDE720
:1014C000C0B2062807D1009B03990133DBB28031FB
:1014D0000093803C0391002CB8D10420FFF70EFF4D
:1014E000FFF71EFF044B01251C7000E00025281C9F
:1014F00005B0F0BD21030020220300209E02002041
:10150000F0B5384C87B0002301902370994201D187
:10151000012301E0344A1180344A642613704320C9
:10152000FFF7ECFE324FFFF7F3FE002803D1002F48
:1015300003D0013FF7E7002F03D1013E002EEED18B
:101540004DE00125FFF7ECFE2378002B38D1C0B227
:101550000290012805D004283DD10620FFF7CEFED9
:1015600039E005AE0221301CFFF714FF01988021FD
:10157000FFF710FF23780390002B18D1FFF7D0FE60
:101580000702FFF7CDFEBFB223783F18BFB2012B91
:101590000DD0039B9F4207D13378AB4204D1EB437C
:1015A0007278DBB29A4204D01820FFF7A7FE00231E
:1015B00003E00620FFF7A2FE029B2278002A02D059
:1015C000002626700BE0012B05D1019A6B1C80329E
:1015D000DDB20192B6E7054A002313700126301CE4
:1015E00007B0F0BD210300209E020020220300204E
:1015F00000350C0010B50023934203D0CC5CC454DA
:101600000133F9E710BD031C8218934202D0197010
:101610000133FAE770470023C25C0133002AFBD193
:10162000581E7047F8B5C046F8BC08BC9E467047C7
:10163000F8B5C046F8BC08BC9E46704704030904D0
:1016400041726475696E6F204C4C43004172647541
:10165000696E6F205A65726F00000000120100026F
:101660000200004041234D00000201020001000081
:1016700008000000100000002000000040000000F2
:1016800080000000000100000002000000040000D3
:10169000FD1200002113000011130000551300007B
:1016A0006F130000F9130000011500007600200000
:1016B00041707220313120323031390031333A30CB
:1016C000393A343900580A0D00590A0D005A0023DE
:1016D0000A0D003E00322E30000000003D0B0000DD
:1016E000590B0000750B0000990B0000B50B0000B2
:1016F000990B0000DD0B00005B41726475696E6F31
:101700003A58595A5D00000021104220633084404D
:10171000A550C660E770088129914AA16BB18CC1C0
:10172000ADD1CEE1EFF13112100273325222B55237
:101730009442F772D662399318837BB35AA3BDD310
:101740009CC3FFF3DEE36224433420040114E66407
:10175000C774A44485546AA54BB528850995EEE560
:10176000CFF5ACC58DD55336722611163006D77617
:10177000F6669556B4465BB77AA719973887DFF7B0
:10178000FEE79DD7BCC7C448E5588668A7784008DF
:10179000611802282338CCC9EDD98EE9AFF9488900
:1017A00069990AA92BB9F55AD44AB77A966A711A77
:1017B000500A333A122AFDDBDCCBBFFB9EEB799B50
:1017C000588B3BBB1AABA66C877CE44CC55C222CC7
:1017D000033C600C411CAEED8FFDECCDCDDD2AADA0
:1017E0000BBD688D499D977EB66ED55EF44E133E57
:1017F000322E511E700E9FFFBEEFDDDFFCCF1BBFF0
:101800003AAF599F788F8891A981CAB1EBA10CD1C9
:101810002DC14EF16FE18010A100C230E3200450D1
:10182000254046706760B9839893FBA3DAB33DC344
:101830001CD37FE35EF3B1029012F322D232354221
:10184000145277625672EAB5CBA5A89589856EF5D4
:101850004FE52CD50DC5E234C324A0148104667471
:10186000476424540544DBA7FAB79987B8975FE724
:101870007EF71DC73CD7D326F2369106B0165766C1
:101880007676154634564CD96DC90EF92FE9C899AC
:10189000E9898AB9ABA94458654806782768C01811
:1018A000E1088238A3287DCB5CDB3FEB1EFBF98B84
:1018B000D89BBBAB9ABB754A545A376A167AF10A61
:1018C000D01AB32A923A2EFD0FED6CDD4DCDAABD94
:1018D0008BADE89DC98D267C076C645C454CA23CB1
:1018E000832CE01CC10C1FEF3EFF5DCF7CDF9BAF64
:1018F000BABFD98FF89F176E367E554E745E932E01
:10190000B23ED10EF01E00000000000001140000E5
:1019100009024300020100803209040000010202B2
:101920000000052400100104240200052406000123
:101930000524010001070583030800FF09040100D5
:10194000020A0000000705810240000007050202AC
:101950004000000000C20100000008006900000013
:0819600041000000000000003E
:1020000000800020A52F00008D2F00008D2F0000E4
:1020100000000000000000000000000000000000C0
:102020000000000000000000000000008D2F0000F4
:1020300000000000000000008D2F0000F92F0000BC
:102040008D2F00008D2F00008D2F00008D2F0000A0
:102050008D2F00008D2F00008D2F0000912F00008C
:102060008D2F0000D92E00008D2F00008D2F000035
:102070008D2F00008D2F0000E92E00008D2F000015
:102080008D2F00008D2F00008D2F00008D2F000060
:10209000000000008D2F00008D2F00008D2F00000C
:1020A0008D2F00008D2F00008D2F00008D2F000040
:1020B0000000000010B5064C2378002B07D1054B1B
:1020C000002B02D0044800E000BF0123237010BDA4
:1020D0001002002000000000D4A60000044B10B540
:1020E000002B03D00349044800E000BF10BDC046E8
:1020F0000000000014020020D4A6000010B5024821
:1021000000F06CFA10BDC0462C020020E12110B591
:102110004902044801F0B4FB96210348890102F00A
:102120006FFD10BDC40700204805002070B50400F5
:1021300000F070FF05000A4E300002F069FD002833
:1021400007D0300002F070FFC1B2064800F072FE06
:10215000F1E700F05FFF401BA042ECD370BDC0462A
:10216000480500202C020020F0B5061C85B01500A3
:102170001F00204C002910D1013D002D04D02A2140
:10218000200003F020F8F7E72021200003F01BF8DF
:102190000020FFF7CBFF05B0F0BD06F045FF00972C
:1021A00002000B00200003F001F9301C05F07EF95D
:1021B000C217831853400021301C039305F06AF8BE
:1021C0000300581E83410C4A03990133DF1904238D
:1021D000914206DC013B632903DC013B092900DC59
:1021E000013BDF19AF42D3DA2021200002F0EBFFE0
:1021F0000137F7E7C4070020E703000070B588B097
:102200000E000500154914006846122207F044F834
:1022100012200E220021684407F047F8002E04D057
:102220002A000F49684607F003F900236A4668460A
:10223000135507F02FF92023A04203DA6A461354FE
:102240000130F9E76C446946013C0648237002F00E
:10225000B6FF0020FFF76AFF08B070BDB89C000011
:10226000D89C0000C4070020F8B5050007F012F95B
:102270000024060020273900A64200DD295D05481C
:10228000013402F0A0FF062CF5D10020FFF74EFF2D
:10229000F8BDC046C4070020F0B5BF4C8FB0200089
:1022A00000F09EFB0226BD4D02000B0000962800A8
:1022B00003F082F8200000F0B7FB009602000B004C
:1022C000280003F079F82300002689331E702300CC
:1022D000883319782300903305221868FFF78EFFA2
:1022E000230099331E70230098331E782300A033F7
:1022F000186806F02DFE0022A94B05F013FC06F02D
:10230000E5FE012306223100FFF72EFF200000F03A
:1023100067FB267806F0DAFE06230B223100FFF772
:1023200023FF200000F080FB267806F0CFFE062376
:102330000C223100FFF718FF2378002B00D1F6E0C4
:1023400000F068FE636BC01A26002178052238363B
:10235000FFF754FF3378002B00D0EBE091492800C1
:1023600002F029FF260048363378002B00D0F8E031
:102370008D49280002F01FFF230038331B78002B03
:1023800000D105E100F046FE636CC01A230038332B
:1023900019780522FFF732FF0020FFF7C7FE230060
:1023A000002579331D70230078331E78231DD86FE4
:1023B00006F0CEFD00227A4B05F0B4FB06F086FE57
:1023C0003100260007220223FFF7CEFE774B683646
:1023D0001D70206F06F0BCFD37780022704B05F0B1
:1023E000A1FB06F073FE072239000223FFF7BCFEB3
:1023F000230059331D702300206E58331F7806F0D8
:10240000A7FD6B4A6B4B05F097FF0022644B05F06C
:1024100089FB06F05BFE022306223900FFF7A4FECB
:1024200033786548AB420AD0604B206F1D7006F0D0
:102430008FFD00225A4B05F075FB00F099FAFFF76B
:1024400013FF554C200000F0CBFA060020000F00CF
:1024500000F0EAFA0B000200584959480290039133
:1024600058485949009001913000390000F05CF95A
:1024700004F038FFFA212578890004F045FD09228F
:102480002900FFF7BBFE200000F0AAFA060020009A
:102490000F0000F0C9FA02000B00494847490290BA
:1024A000039148484849009001913000390000F0FC
:1024B000D9F90F000600257806F008FE022307224E
:1024C0002900FFF751FE3000390000F051FA23785F
:1024D000002B00D138482500C835FFF7C5FE06227D
:1024E00001212868FFF78AFE2300CC3318680A22EE
:1024F0000121D034FFF782FE092201212068FFF775
:102500007DFE264C200002F063FEFA208000FFF7DB
:102510000DFE00F07FFD2D4B984206D92B68092B4C
:1025200003D82B49200002F05BFE0FB0F0BD012064
:10253000404209E7300000F0CBFA0590300000F08F
:10254000D3FA0700300000F0B7FA3B000090059A7C
:10255000204906A806F06CFF06A9280002F02FFE0D
:1025600000E7300000F0CCFA0590300000F0D4FA1B
:102570000700300000F0DEFA3B000090059A164993
:1025800006A806F055FF06A9280002F018FEF3E69B
:1025900001204042FAE6C0462C020020C407002079
:1025A00000005940DC9C0000DE9C000095020020E9
:1025B0006F1283C0CAA1FD3FE39C00005E62C0BFF2
:1025C000B24AE999B98AC56F0AC149408813000027
:1025D000089D0000E89C0000F89C000000230221F8
:1025E000421D0370437083808360037303824361E1
:1025F000037683830362D37723320385C362137424
:10260000537413721032C363103213705370C36467
:1026100010321370537003661032137053700367D7
:1026200013745374021DD367843213705370936014
:1026300013745374936110321374537410321375FE
:1026400051749374D374143253609360D3601361E4
:1026500053619361123A137070470B00413B052B95
:1026600002D83739080070470B000800613B30384A
:10267000052BF8D85739F5E770B505782B002D3BB9
:102680005A425341C418200006F0C2FD6423584347
:1026900023781A00303A092A01D80134F8E72E2BA2
:1026A0000BD16378303B092B07D80A225343C0185B
:1026B000A378303B092B00D8C0182D2D00D1404203
:1026C00070BD0000F8B50F00040006F0A1FD642104
:1026D000050004F09FFC134E28004E43642104F0D3
:1026E00013FC388023781A00303A092A01D80134C3
:1026F000F8E72E2B0BD10B4801342578303D092DFE
:1027000005D80A2104F000FC45437619F4E70520BA
:1027100070430321013004F0F7FB002378603B7223
:10272000F8BDC04680969800F0B58BB006000F004B
:1027300010001900129A139B06F070F8464A474B96
:1027400005F0FAFD04000D0002F0B2FE08900991B8
:102750002000290002F066FE3F4A009001913F4BA5
:102760003000390005F0E8FD3B4A3C4B04000D0009
:102770001098119905F0E0FD06000F0020002900D7
:1027800002F096FE029003912000290002F04AFE1A
:10279000049005913000390002F08AFE06900791FE
:1027A0003000390002F03EFE069A079B06000F003B
:1027B0000498059905F0C0FD320004000D00029850
:1027C00003993B0005F0B8FD009A019B05F0B4FDAC
:1027D00002000B002000290006F020F802000B0088
:1027E00005F0AAFD320004000D00089809993B008D
:1027F00005F0A2FD02000B0005F09EFD22002B005B
:1028000004F074FE02F0A0FE3200089009910498D2
:1028100005993B0005F090FD009A019B05F08CFDA9
:10282000069A079B04000D000298039905F084FDA9
:1028300002000B002000290004F058FE02000B00EB
:102840000898099902F07CFEC022054B120605F09B
:1028500073FD0BB0F0BDC046399D52A246DF913FDB
:102860006E4F5841F0B589B004000D0010981199D1
:1028700005F0D4FF384A394B05F05EFD364A0600B4
:102880000F00364B2000290005F056FD324A334B2D
:1028900004000D000E980F9905F04EFD0290039173
:1028A0003000390002F004FE04900591029803996B
:1028B00002F0B8FD009001912000290002F0F8FD1F
:1028C000069007913000390002F0ACFD069A079B94
:1028D00006000F000098019905F02EFD32003B0024
:1028E00005F02AFD06000F002000290002F09AFDE5
:1028F00004000D000298039902F0DAFD02000B00BB
:102900002000290005F018FD32003B0005F086FF8D
:10291000009A019B04000D000498059905F00CFD38
:1029200022002B0002F00CFE0022002304000D0008
:1029300004F076FC002807D020002900084A094B43
:1029400004F0D4FD04000D00074A084B20002900C4
:1029500005F0F2FC09B0F0BD399D52A246DF913F6F
:10296000182D4454FB211940F8C1631ADCA54C40D2
:1029700010B500220A4B04F0B9FD0A4B002205F005
:10298000D1F806F0AFFA084B184004D510230138EF
:102990005B4218430130054B8000C05810BDC04653
:1029A00000802640008036400F000080449D0000DB
:1029B00070B50400092521002A001C31043006F0FE
:1029C0006BFC200021002A002831103006F064FC46
:1029D00000F020FB012360636370237070BD000072
:1029E0000023D0B504004370806806F0EBFA0022A3
:1029F0000C4B05F097F80600A0880F0006F0A8FA27
:102A000002000B003000390004F070FD0300207B51
:102A10000A00002802D0802212068A18180011002D
:102A2000D0BDC04665CDCD410023D0B50400437074
:102A3000406906F0C7FA00220C4B05F073F8060057
:102A4000208A0F0006F084FA02000B0030003900E3
:102A500004F04CFD0300207E0A00002802D08022F2
:102A600012068A1818001100D0BDC04665CDCD41B0
:102A7000836810B54360040000F0CCFA0123E060E5
:102A80006370237010BD836810B54360040000F0CC
:102A9000C1FA0123E0606370237010BD10B504001B
:102AA0000800FFF7E9FDA06010BD10B504000800A4
:102AB00006F0AEFBA06010BD002310B5642143708A
:102AC000406804F0A7FAFA23DB00C91888B210BDE9
:102AD000002310B564214370406804F015FA6421A6
:102AE00004F098FAC8B210BD002310B50349437032
:102AF000406804F009FAC0B210BDC04610270000BB
:102B0000002310B503494370406804F0FDF9C0B2DA
:102B100010BDC04640420F00002310B50449437069
:102B2000406804F0F1F9642104F074FAC8B210BDF1
:102B300010270000002310B564214370406804F0A2
:102B4000E3F9642104F066FAC8B210BDC36810B599
:102B50008360040000F05EFA0123606063702370FC
:102B600010BD10B504000800FFF786FDE06010BD41
:102B7000C36810B58360040000F04CFA0123606064
:102B80006370237010BD10B50400080006F040FB10
:102B9000E06010BD10B504001030210006F072FC9A
:102BA00000F038FA01232062A21D0534D377E377C1
:102BB00010BD10B5102206F074FC10BD0300F7B56F
:102BC000A9331B7804000093002B00D16BE00300B5
:102BD000AA331978FFF741FD2300AB3305001978BC
:102BE0002000FFF73AFD23002D01A83328181B7899
:102BF000C0B283424FD122002500D4321368BC35C5
:102C0000013313602B78002B03D0083A136801338B
:102C100013602300B9331B78002B27D0012B15D16B
:102C200020003830FFF724FF20004830FFF72BFF4B
:102C30002B78002B0AD02000FFF7BAFE2000583076
:102C4000FFF784FF20006830FFF780FFC434256859
:102C5000002D26D02368A86A996A06F009FC00288E
:102C60001FD12800FFF796FF2D6BF1E720004830B9
:102C7000FFF709FF2B78002B06D02000FFF798FE06
:102C800020007830FFF762FF20008830FFF770FFE8
:102C900020009830D8E7D034236801332360002324
:102CA00000930098FEBD030007000500BA330193AE
:102CB0001E78B937C435002E2DD10600AA365949E1
:102CC000300006F0D5FB002805D05749300006F04B
:102CD000CFFB002810D101233B70C03423682B6048
:102CE0002C68002CDDD03100A06A06F0C1FB002862
:102CF00000DB91E0236BF2E74C49300006F0B8FBB3
:102D0000002806D04A49300006F0B2FB0223002812
:102D1000E2D10023E0E73878022825D02200AA3249
:102D20001378002B20D040013043013828281BD8CD
:102D300004F0E0F815393F45485F646A6E1A1A1AC4
:102D40001A1A1A1A1A1A1A1A1A1A1A1A1A1A1A1AE3
:102D50001A1A1A1A1533393F45484F5559002000A1
:102D600011004830FFF79AFE2E68002E99D02B688C
:102D7000B06A996A06F07CFB002800D091E7019BBD
:102D8000F26A1B789A4200DD8BE704D12100300003
:102D9000AA31FFF70EFF366BE7E7413B5A4253413A
:102DA0002200BC3213E021001C311000FFF78AFC26
:102DB000DAE7533B5A425341621DD377D4E72100EF
:102DC0002831F2E7573B5A42534122003032137008
:102DD000CAE7200011005830FFF7C3FEC4E7200007
:102DE00011006830F8E7200011003830FFF75DFE71
:102DF000BAE730229A429B415B42D1E720001100A2
:102E00008830FFF7C0FEAFE7200011009830E3E7FD
:102E1000200011007830DFE7002800D141E70023CF
:102E20002B603EE72B9D0000319D0000379D000088
:102E30003D9D00000200F8B506000700C832136887
:102E4000040001330D001360BB36A937242923D0B9
:102E500018D80A2901D00D292BD1337800200E2B48
:102E600005D8E318AA3318702000FFF7A7FEBA347C
:102E700023782A3D01332370002333706B425D4178
:102E80003D70F8BD2A29E8D02C2912D10200A832C1
:102E900013784B401370E0E7230000200222BA337E
:102EA0003070123B9874BC3418705A7438702070AB
:102EB000E7E733780D2B04D85A1CE318AA33327095
:102EC0001D703878002804D1A83423785D4025701F
:102ED000D7E70020D5E7000010B5024802F003F85C
:102EE00010BDC0464805002010B5024801F0FBFFA8
:102EF00010BDC04604030020F7B501240326154F7A
:102F00001549380000F064FB1449154800F060FBD7
:102F10001449154800F05CFB1449154800F058FBB3
:102F20001449154800F054FB144D1549280000F0D1
:102F30004FFB39000096230001940022114801F054
:102F40004BFF0096290001941E231F220E4801F01A
:102F500043FFF7BD8C07002000080042000C004230
:102F600094070020001000429C070020001400423B
:102F7000A407002000180042AC070020B40700207E
:102F8000001C00424805002004030020FEE700006A
:102F9000034B10B51B68002B00D0984710BDC046EE
:102FA000BC07002070B50F490F4CA14204D100F0BE
:102FB0008FF802F00FFAFEE70C4D00238D42F6D099
:102FC000CA18E818A24205D3094B8242EFD009493A
:102FD000002204E0006804331060F1E704C38B4270
:102FE000FCD3E4E70000002010020020D8A6000077
:102FF00010020020FC0D002010B500F066F800283B
:1030000001D100F057F810BD014B18607047C04661
:10301000BC070020014B18687047C046C00700205D
:10302000F7B51348012284461249134C8E68636831
:1030300005689B0E1340019288686268019F920E9A
:103040003A4067463F6893420ED1BD420CD186425A
:103050000AD35B19FA254868AD00861B07486B4305
:103060007043000DC018FEBD3D0013000600E3E7ED
:10307000C007002010E000E000ED00E05555000022
:1030800070B5041E10D0FFF7CBFF050000F01CF850
:10309000FFF7C6FF054B401B9842F7D9FA23013CC6
:1030A0009B00ED18002CF3D170BDC046E703000073
:1030B0007047000010B5034A13680133136000F035
:1030C0004BFA10BDC0070020704700207047000079
:1030D0001E2270B546484749436893431C3A134340
:1030E000436008238C6923438B61434C434B9C8290
:1030F0009C8A14439C82DC681442FCD00124404A20
:1031000014701578254203D055786DB2002DF8DB88
:1031100001249460547864B2002CFBDB394C546079
:10312000547864B2002CFBDB8224E4015480547890
:1031300064B2002CFBDB02249C840E34DD68254243
:10314000FCD0314CDC621024DD682542FCD09D8C23
:103150002E4C2C439C841024DD682542FCD0022494
:103160009D8C80262C439C844024DD683542FCD015
:10317000DD682542F9D01024DD682542FCD000240A
:103180009460547864B2002CFBDB214C546054787A
:1031900064B2002CFBDB1C6A1E4D2C4080251C6297
:1031A0001C6AAC431C62032393601B4B536053782F
:1031B0005BB2002BFBDB0023FF240B72174A4B7220
:1031C0008B72CB72164B1A60164B174A1B6811682C
:1031D0009A065B01C90E2340520F12020B431343A0
:1031E000124A1385802342681343436070BDC04672
:1031F00000400041000400400C06000000080040B0
:10320000000C004001050100B905FF7D040A000023
:1032100000070300FFFCFFFF03060100006CDC0257
:1032200000000020246080002060800000400042F8
:10323000FA21314B10B51868890003F065FE2F4B59
:103240000138984256D82E492E4A4860C020136A49
:1032500000061B021B0A03431362002407238C6031
:103260000B608021136A09061B021B0A0B431362C1
:10327000FC22254B196A0A431A62FC22196A920140
:103280000A431A62A022196AD2020A431A62E0B201
:103290000021013400F076F8142CF8D11B4B1C00EF
:1032A0005A7852B2002AFBDB194A5A80194B1A008D
:1032B000597EC9090129FBD0E421C90099803F2129
:1032C000D970537EDB09012BFBD0C02300205B01AA
:1032D0001361907000F024F863785BB2002BFBDB85
:1032E0000D4B0E4A6380D379DB09012BFBD04123C0
:1032F000537010BDFEE7C04600000020FFFFFF0036
:1033000010E000E000ED00E000040040000C004090
:103310001E400000004000422140000000480042E2
:10332000164A00B51300517EC9090129FBD00138A6
:10333000042816D81969124A0A400F211A615A78CE
:103340008A4303F0D7FD0308060B03001100012296
:103350000A435A7000BD11000322F9E7110002224E
:10336000F6E7F02311691B050B430F211361537816
:103370008B43190002230B435370EBE700400042DC
:10338000FFFFFFF0182330B51D000400454308205F
:10339000204A55192856013014D0032912D80800A4
:1033A0006343D156D31803F0A5FD02280E1B5868BD
:1033B000CB010221184A9B181A18403211700122C1
:1033C00082405A6030BD5868CB010621124A9B18D2
:1033D0001A1840321170012282405A609A61F1E756
:1033E0005868CB0106210C4A9B181A1840321170FC
:1033F000012282405A605A61E4E75868CB010221F9
:10340000054A9B181A1840321170012282409A60B6
:10341000D8E7C046A89D0000004400411823F0B53D
:1034200008245843114A13181C5701341BD0012695
:1034300035005F688356BD400D4ADB019A189068DD
:1034400005420BD10C00601E8441D2194032107825
:1034500034400336A400B04320431070044A9B1844
:10346000002901D15D61F0BD9D61FCE7A89D0000D0
:103470000044004118224243F8B52C4E0300B21814
:10348000127A52B2140001320ED0481C00240C28CB
:103490000AD803F02FFD0720202020202020200B19
:1034A0000B0B0B00012464422000F8BD092905D153
:1034B0000021D8B2FFF766FF0024F5E70A2902D100
:1034C000D8B20839F6E700240B29EDD1D8B20A3971
:1034D000FFF758FFE8E718204343F2185568F35602
:1034E0002C00134ADB016E0817389B18C9B2044040
:1034F0009E19002C0DD00F2430363278090122405D
:103500001143C9B25B19317040331A7810431870F7
:10351000D2E732000F27303216785B19BE433143B1
:10352000117040331A7810431870BDE7A89D000051
:103530000044004110B50400FFF7BAFD014B1C60C8
:1035400010BDC046040000200122024B52421A6006
:103550007047C04604000020164A10B51368591C75
:1035600026D0013B1360002B22D172B6124B134AB6
:103570000433934213D9124A01211000147D0C42E6
:10358000FCD02021148BFF319B085B002143118369
:10359000D3610C4B13800123027D1A42FCD0BFF390
:1035A0004F8F094B094ADA60BFF34F8FC046FDE7E2
:1035B00010BDC046040000200020000003020000EF
:1035C0000040004102A5FFFF00ED00E00400FA0505
:1035D00000230371016070479446F0B59E1E721E71
:1035E00096416246056892072F6836063A43324391
:1035F0002A60072505AC24780068A40129402143EE
:1036000042680024022B00D05C0311432143416037
:10361000F0BD30B5C0250368AD031C6812052A4013
:103620002243C0240904A402214011431960036805
:103630005A6814435C6030BD0123026811680B4373
:10364000136003681A68D207FCD4DA69D207F9D488
:1036500070470223026811680B4313600268D36944
:103660009B07FCD470470268137E9B0702D4037942
:10367000002BF9D1002303717047002203685A839D
:1036800070470368187E4007C00F70470368187EB4
:10369000C0097047802302685B42117E0B4313769A
:1036A00070470368588B8007C00F70470223026879
:1036B000518B0B43538370470368187EC007C00FBC
:1036C00070470368188DC0B2704703681A7ED2072E
:1036D000FCD589B2198501230371180070470122B6
:1036E00003689A757047012203681A7570470000D5
:1036F0000368214A30B593422FD0204A93422FD0FD
:103700001F4A93422FD01F4A93422FD01E4A934202
:103710002FD01E4A93421FD10E23192201210325C7
:1037200099401B48C024016099082B40AB40FC35F0
:103730009D4089000918A4000859A843C0259D4050
:103740002B0003430B518023DB011A43114B5A809A
:103750005A7852B2002AFBDB30BD09231422DDE780
:103760000A231522DAE70B231622D7E70C231722A8
:10377000D4E70D231822D1E700080042000C0042D4
:10378000001000420014004200180042001C0042D9
:1037900000E100E0000C0040F8B504000F00160046
:1037A0001D00FFF7A5FF2000FFF746FF1C21BB000F
:1037B0000B4071072268090C0B43136084232268B5
:1037C0009375012F1AD11021012E00D008390C4B0E
:1037D00069431868C00003F097FB07222168024084
:1037E0008B895203DB04DB0C13438B8122680304B7
:1037F0009089DB0C400B400318439081F8BDC04614
:10380000000000200020704770B50F26CB1D013945
:1038100002003240D5B22C0000093034092A00DD04
:1038200007341C70013B8B42F2D170BD10B50C0007
:103830000B4B1868FFF7E8FF21000A4B08311868A6
:10384000FFF7E2FF2100084B10311868FFF7DCFF9B
:103850002100064B18311868FFF7D6FF202010BD55
:103860000CA0800040A0800044A0800048A0800000
:1038700008B4024B9C46103808BC60472D38000045
:10388000704770473F20704713B56B460268D97187
:103890000733546819000122A04716BD70B50A26E7
:1038A0000B7892B06E44023305000B703C2200216D
:1038B000300005F0FAFC394801AC06903848242164
:1038C0000790062020776846364AA1742281364A3E
:1038D000364BA281FD3AFF3A8018C17768462339FA
:1038E0000630C17768460730C17702A8C177072044
:1038F000F277032608316944C87703A9CE771021EF
:103900002B366E443170092621851F3169440E70B3
:103910000CA9053E0E7033212380022369440B70ED
:1039200006360DA90E7022493536A1863B216E441C
:10393000307010A86274E27702703D3269446A44C4
:103940000B70137040210022E37023716371A37325
:1039500041336B44218719705A702B7DC039A37095
:10396000A37263770133DBB2A3776A7D0B200D006E
:1039700068441543C5773120684403703A23501CCE
:103980006B441870412302320A436B441A702100C1
:103990004222084800F018FD12B070BD1001042446
:1039A000020605240904000001020000080B0000C3
:1039B000070500002008002008B4024B9C46103880
:1039C00008BC60479D38000070B5027D0B790C0083
:1039D00000259A420BD10B784E78A12B09D1212ECC
:1039E00005D107221B491C4800F0EEFC01352800D8
:1039F00070BD212BFBD1202E22D10722154916485C
:103A000000F018FC9622134BD200196891421DD188
:103A1000DB79DB071AD4FA20FFF78CFD00210E4872
:103A200000F0DAFD0125232EE1D1E378A2781B0214
:103A300013430A4A00210848136000F0CDFDD6E781
:103A4000222EEFD18A78034BDA71DBE7FFF77CFD9A
:103A5000E4E7C0460C0000202008002008000020F9
:103A600008B4024B9C46103808BC6047C9390000B6
:103A700010B508220021024805F017FC10BDC04611
:103A80000C00002010B5417D006A013100F0FCFA05
:103A9000034B1B6801335A1E9341181810BDC046D2
:103AA0001400002010B5417D006A023100F002FBD5
:103AB00010BD10B5417D006A023100F0C9FA10BD99
:103AC00070B50D00417D0400130002312A00006A28
:103AD00000F0C4FB002801D10123636070BD000029
:103AE00010B5054C23685A1C04D103685B699847DC
:103AF00003002060180010BD14000020074A0300D6
:103B0000106810B5411C03D001235B42136010BD47
:103B1000597D186A013100F051FBF8E714000020CC
:103B200010B5FFF777FAF423FF330024984207D942
:103B3000044B0A20DC79631E9C41E4B2FFF7A0FA33
:103B4000200010BD0C0000200020704770470000CE
:103B5000FA239B0010B583600F4B0022C382030041
:103B6000283383610D4B04004260C261180050335A
:103B700023610830631D21622060DA778323A3620A
:103B8000813BE3628033236301F0DAFA21001031D4
:103B900001F0A7FA200010BD03020000F8A1000008
:103BA000022110B5094B1A68437D5B01D318FF331E
:103BB0009C7A21439972437D0133DBB25B01D318B8
:103BC0000122FF33997A0A439A7210BDD80C002063
:103BD00010B502490248FFF7BBFF10BD20080020C6
:103BE000C4070020704710B5040001F017FC200046
:103BF00010BD0000F0B5822919D1C3B2294D5A0178
:103C0000AA189169284C80010C40C02189052143E4
:103C100091612649083340187021506128685B0182
:103C20001A5C8A43110030220A431A54F0BD00295D
:103C3000FCD1C026C1B21B4C4B01E3189A681A4D47
:103C4000B6052A4032439A60194A800182185A60A8
:103C50000A000727246808325201115DB9430F009A
:103C60000121394311559F6910493D4040182E43A9
:103C70009E6158617020115D81430800102101434D
:103C8000115599680B48A218084080214903014347
:103C900099609968890B89039960402311790B43D6
:103CA0001371C3E7D80C0020FFFFFF8F4C080020E2
:103CB0000C0A0020FF3F00F0EFF3108303600123A4
:103CC000436072B670470368002B02D162B6BFF33F
:103CD0006F8F704773B5836D0400002B1BD10600F6
:103CE000A83635786846FFF7E7FF019BEDB2013B48
:103CF00002D33578EDB2FAE768460193FFF7E3FFA8
:103D0000002D01D1002076BD2300A4331868A03413
:103D10002368C01AF7E76846FFF7CEFF22000025A8
:103D2000019BF432013B02D31578EDB2FAE7684605
:103D30000193FFF7C8FF002DE4D02300F03318688B
:103D4000EC34E5E710B5436D4468DBB25A01A218C4
:103D50009168094808330840802149030143916074
:103D600091685B01890B890391602268D318402216
:103D700019790A431A7110BDFF3F00F0F7B5436D82
:103D80004268DBB21900040008311068490141188B
:103D9000C979C90711D55B01D21893689B049B0CA4
:103DA0000CD12000FFF7CEFF63681A68636DDBB2A9
:103DB00008335B01D3187F22DA71F7BDE16D00296A
:103DC00023D12100A4310B6023000125AC33E5652C
:103DD00068465360FFF770FF260020002100019B1A
:103DE000A836013BF430F5315A1C33D035700278D7
:103DF0005F1ED2B20A700A78002A04D12000019313
:103E0000FFF7A0FFE8E73B00EEE72100F0310B6091
:103E10000023E3652300603353606846FFF74CFFDF
:103E20000125260020002100019BF436013BA8302B
:103E3000F5315A1C0ED0357002785F1ED2B20A706E
:103E40000A78002A04D120000193FFF77BFFE8E7FE
:103E50003B00EEE768460193FFF735FFA4E737B56F
:103E60006B46DC1D00230D00237001F069F9210071
:103E700001F0F4F82B681818286020783EBD000087
:103E80000078002810D00121084B1B681A898A434A
:103E90001A810822198B0A431A830422198B0A43B8
:103EA0001A830022024B1A607047C046D80C0020CB
:103EB000D00C002010B50F4A93699B0B9B039361B4
:103EC00013680222FF331A729879823A02439A7178
:103ED0001A7A9207FCD57F24074A2140937A08007A
:103EE000A3431900802301439172917A5B420B43F3
:103EF000937210BDD80C00200050004110B50C008A
:103F000001F01EF9210001F0DCF8002804D1034A79
:103F100093699B0B9B03936110BDC046D80C002096
:103F2000F8B50D00832A19D1CBB23B4C5A01A21827
:103F300091693A48AD010840C0218905014391616A
:103F4000374920686D187021083355615B011A5C90
:103F50008A43110040220A431A54F8BD022A55D15F
:103F6000304A8B009858002802D003685B69984754
:103F7000F82001F04FFA0400274E2B4B46600360F7
:103F800040220021083005F090F922000023A032E1
:103F9000A3646565E3642365A365E3655360D36447
:103FA0001372136013654C3213725372FF222B008D
:103FB0001340590171188868184F08330740C02012
:103FC000800538438860306807265B01195CAD00C6
:103FD000B1430E000321314319542300616D606821
:103FE00011404901411860334B60616D63680A40BC
:103FF0001B6852019B180122FF33997A20000A4363
:104000009A72FFF79FFE074B5C51A6E7110028004C
:10401000FFF7F0FDA1E7C046D80C0020FFFFFF8F9F
:104020004C0800202408002060A2000070B50500A4
:104030000124064BA200D258002A06D021002800F5
:104040000134FFF76DFF0A2CF3D170BDF807002093
:104050000B4BCAB20B488901C9185301C3185961E7
:1040600099690832890B89039961036852019A188A
:104070000223D3715179823B0B4353717047C04681
:104080004C080020D80C0020084B8A00D05810B5EE
:10409000002803D003689B68984710BDC9B2044B41
:1040A0004901591888688004800CF6E7240800202C
:1040B000D80C002010B50C00FFF7E6FF00280CD04C
:1040C000064BE4B21B68083464011C198023627932
:1040D0005B42134363710223E37110BDD80C0020CF
:1040E000F0B51C00304B85B01B6807000D00029234
:1040F000002B55D02D4E3178C9B2002902D119209C
:10410000FFF78CF964233370294BAA00D05800289C
:1041100008D0036822005B680299984704002000D9
:1041200005B0F0BD29003800FFF7AEFF844204D986
:1041300029003800FFF7A8FF04000121EBB21D4E53
:1041400003935B010193F21893689B0B9B039360AD
:10415000019A336802989B18FF335A7A0A435A72BD
:10416000154BA901C918220005F096F8002CD6D0ED
:1041700029003800FFF788FF0028D0D14021039B99
:10418000326808335B01D318187901431971012192
:10419000D971019BD318FF339A7A0A439A72BEE70A
:1041A00001246442BBE7C046D00C00204008002038
:1041B00024080020D80C00200C0A002013B56B4600
:1041C000DC1D22000123FFF78BFF012801D120789D
:1041D00016BD01204042FBE770B5CBB2124A13482E
:1041E0005C0189018918021951609168104D0833EA
:1041F0000D40802149032943402591609168890B36
:104200008903916001685A018A181679354315713E
:1042100095796D06FCD55B01C918CB79DB07FCD518
:1042200000198068C0B270BD0C0A0020D80C0020B4
:10423000FF3F00F070B50D0000211400FFF7CCFF28
:10424000A04200D9200000230349A34203D0CA5C46
:10425000EA540133F9E770BD0C0A0020F0B51E00E6
:104260003F4B85B01B680F000192002B3FD080238D
:10427000DB019E423BD83B4C2178C9B2002902D1D8
:104280001A20FFF7CBF8642300252370364BBA01C0
:10429000D3180293002E2CD0344B1B680393FF23BA
:1042A0003B401C0000930834039B64011C19A37954
:1042B000DB0921D02E4B2F49186802F025FE2E4B2A
:1042C0001721584302F020FE2C4BE279920713D4B9
:1042D000DA5D002A01D10138F7D20122DA55009BBC
:1042E0005A01224B9B189A69920B92039A610125FD
:1042F0006D42280005B0F0BD0022204B3400DA5595
:104300003F2E09D9009B40245A01184B9B1880224C
:10431000996912060A439A6122000199029804F0F1
:10432000BBFF009BA1045A01104B890C9B18029AF9
:104330002D195A619A69361B920B92030A439A61AE
:10434000009B039A08335B01D3180222DA71597972
:10435000823A0A435A71019B1B1901939AE7C0469E
:10436000D00C0020410800204C080020D80C002070
:104370000000002040420F0070110100430800209F
:1043800070B50D001C000D4BAE01F6181100300089
:10439000220004F081FFEDB209496D014D196E61F3
:1043A000AB69084A20001340AB61AB69A2049B0BC8
:1043B000920C9B031343AB6170BDC0464C080020B8
:1043C000D80C0020FF3F00F0F7B5104B01901B7890
:1043D0000F001500002B0CD10D4B16001C78002C83
:1043E00009D00C4E0C4834882018641904F054FF8E
:1043F00034802800FEBD002EFBD03A193300002186
:104400000198FFF7BDFF2418361AF4E7CC0B002003
:10441000CD0C0020CE0C0020CD0B0020F8B50F00F5
:1044200016000024012A26D9100004F021FF0500FF
:10443000380005F02FF803230222013040002870D5
:104440006B7096420DD9397800290AD0531CDBB223
:104450000137A9549E4203D00232EC54D2B2F0E7A5
:10446000320029000548FFF7AFFF441EA041C4B247
:10447000280004F007FF2000F8BDC04620080020F7
:10448000F0B50024012685B0184B0F0069461E7058
:1044900005000094FFF7E3FC154B01A90B806A3B74
:1044A000FF3BCB715A330B72009B8C7109334B80ED
:1044B0000E4B4E7108711C703A00092F0FD00D4F32
:1044C00009223E700C4E280000943480FFF77CFFD8
:1044D00069462800FFF7C3FC328808493C70280071
:1044E000FFF772FF012005B0F0BDC046CC0B0020E5
:1044F00009020000CD0C0020CE0C0020CD0B0020C6
:1045000070B5CE7892B005000C00022E0BD18B79DD
:10451000C9792C4809021943FFF7B2FF411E8841AF
:10452000C0B212B070BD00F00BFE210000F0AAFD79
:10453000002803D0C117081AC00FF2E7012E0ED1D0
:10454000E279A37912021A431F49112A13D8D2B271
:10455000002A10D02800FFF737FF0120E1E7032EE3
:10456000DFD1A378002B08D1E279A37912021A4394
:104570001649032AEBD90A78ECE7022B08D1E27935
:10458000A379120212491A432800FFF747FFC8E730
:10459000012B05D1E279A37912021A430D49F3E701
:1045A000032BBED14122010001A804F07EFE00F0E1
:1045B000C7FD01A900F076FDE279A37912021A4342
:1045C00001A9E1E7200800209AA200008AA20000C9
:1045D0007CA200008EA20000CBB204495B01C91886
:1045E0008B699B0B9B038B617047C046D80C0020E6
:1045F00037B5050048780C000B2810D802F07AFC7B
:10460000061B0F2B0F404561494C5A5D097801AAE2
:10461000002906D1022311802800FFF7B1FE0120F6
:104620003EBD00231380284B1B78012B00D1137053
:1046300002230021F0E78A780023012A03D101AA8E
:104640001380224BF0E7204A1370214A93699B0B99
:104650009B039361E3E78C78012C06D100211B4B6F
:1046600001AA1C7011702300D6E70120002CD7D1BD
:10467000154B174A187093699B0B9B039361CFE707
:1046800089782800FFF716FCC9E72800FFF738FFF4
:10469000C6E701230F4ACCE70B780020DB06BFD129
:1046A0002800FFF7C3FCA2780A4B0B481A60FFF7FB
:1046B00077FACAE70123094ABBE78A78074B1A60F1
:1046C000C3E70020ACE7C046420800204A080020AB
:1046D000D80C0020D00C0020C4070020D40C0020EF
:1046E0004A4BF7B51E780500002E00D07EE0484CFE
:1046F00023689A8B12070DD5082231009A83300067
:10470000FFF778FA10222368FF33997A0A439A72E6
:10471000404B1E6023689A8B52071FD504229A8350
:104720003D4A1378002B0AD01378013BDBB213709B
:104730001378002B03D101211A20FEF76FFE374AB0
:104740001378002B0AD01378013BDBB21370137877
:10475000002B03D101211920FEF760FE2368FF33EF
:104760001A7A920603D52022597A0A435A721A7A83
:10477000D20623D569460800294AC0CAC0C0A2682B
:10478000920B9203A2604022587902435A7160232F
:104790000A7828001A422AD1FFF72AFF2368FF333C
:1047A000002827D08022997952420A439A711A7AB6
:1047B000520603D54022597A0A435A727F260125B0
:1047C0002368FF331E722F00236808377F01DB192F
:1047D000DB79002B07D0134BAA00D05800280DD04E
:1047E00003681B6898470135082DECD1F7BDFFF72A
:1047F00085FBD3E720210C4A9171D8E729000B48AB
:10480000FFF7A4F92368DF19FE71ECE7CD0C002057
:10481000D80C0020D00C00204108002040080020C7
:104820000C0A002024080020FF500041C40700208B
:1048300010B50248FFF754FF10BDC0462008002005
:1048400080235B00038000234360073303727047BB
:1048500083000148C0187047F8070020836C402B84
:1048600009D03F22036CC154036C0133134003642D
:10487000836C013383647047F7B505006846FFF722
:104880001BFA00264022019B013B02D32E6D961B92
:10489000FAE768460193FFF716FAAB6D6846002BFE
:1048A0004FD1FFF709FA2900019BA831013B5A1C9F
:1048B0000CD00C785A1EE4B2002C05D16846019346
:1048C000FFF701FA2000FEBD1300F0E768460193F0
:1048D0000024FFF7F8F92A002900A0321368A43158
:1048E000B4420ED0086898420BD92800591CEB1826
:1048F0001160603319780830C9B2FFF7AFFF013497
:10490000E9E709689942DDD1002313600133AB6503
:104910006846FFF7D1F92F002A000021019BA83734
:10492000013BF532581CC9D0397010785E1E002842
:1049300005D0117028000193FFF704FAEBE733006C
:10494000F0E7FFF7B9F92900019BF431013B5A1C4C
:1049500006D00C785A1EE4B2002CAFD01300F6E754
:10496000684601930024FFF7AEF92A002900EC32D3
:104970001368F031B44202D0086898421DD8096823
:1049800099429FD1002368461360AB65FFF794F905
:104990002F002A000021019BF437013BF532581CFF
:1049A00000D18BE7397010785E1E002811D011708D
:1049B00028000193FFF7C6F9EAE72800591CEB1815
:1049C0001160AC3319780830C9B2FFF747FF0134E2
:1049D000CBE73300E3E710B50400FFF74DFF206D90
:1049E00010BD10B50400FFF747FF236D002B03D067
:1049F000E36CE418207A10BD01204042FBE7F7B5D4
:104A000017000E000400FFF737FF6846FFF754F960
:104A10003F2200259446019B013B5A1C19D0BD4200
:104A200015D2226D002A12D00121226D4942002A9E
:104A30000AD06046E26CA218117AE26C01320240A0
:104A4000E264226D013A226571550135E7E7013BC9
:104A5000E3E768460193FFF736F92800FEBD000042
:104A6000014B024A1A607047D80C002000500041E8
:104A7000F7B50024514B012105001A201C70FEF7E8
:104A800081FC01211A20FEF7C9FC4D4B01211920A0
:104A90001C70FEF777FC01211920FEF7BFFC2023D4
:104AA000484A0F20D1690B43D361012246490B7854
:104AB00013430B70454B19788143197006211C78FC
:104AC0002143197042490C7822430A701A78024037
:104AD0001A70602219780A431A703E4B3E4A5A8077
:104AE0005F78FF09FCD13D48FEF78EFA01233C4C6C
:104AF0003C4E2268300011780B431370802239003D
:104B0000520004F0D2FB22689378DB07FCD4566293
:104B10001F26354B1B68590B980C9B0131403040C8
:104B20005B0FB14200D105211F2800D10238072BAD
:104B300000D1043B31408901178D01912B49304050
:104B40000F40019939431185118D0700B1430800C9
:104B500038431085118D1803254B7F260B400343E6
:104B60000C2013850823D17881430B430321D37094
:104B70002268D3788B4301390B43D37022681378B2
:104B8000334013700423226816783343137022686D
:104B9000C1241389A40083431648138103591B02BF
:104BA0001B0A035180230360137813481943012320
:104BB00011702B700021FEF763FEF7BD4108002045
:104BC0004008002000040040584400413C4400419B
:104BD00059440041000C00400640000031480000EC
:104BE000D80C0020DC0C0020246080003FF8FFFF80
:104BF000FF8FFFFF00E100E0C407002001207047A5
:104C000010B50368014A1B6A984710BD13040000E1
:104C1000FC30006A704787239B00C018C36880205F
:104C20004000C01A70470300FC331A6A002A03D000
:104C3000DB69C018007D704701204042FBE710B5DA
:104C400004000069FEF7F8FC22000023FC329361A7
:104C5000D361136287229200A4186360A360E360AB
:104C600010BD872310B59B00C218D368002BFCD160
:104C70000069FEF7F8FC10BDF020014030394842D1
:104C800048417047F0231B011940802306209B00F8
:104C900099420AD00133FF330130994205D0802375
:104CA00002385B00994200D0002070470F2001407D
:104CB0000020012903D00239481E8141481C704759
:104CC0008B23F0B5182685B002919B000400C05CD0
:104CD000330008214343324D1700EB185956FEF7B5
:104CE000C9FB304B0821E05C33004343EB185956B5
:104CF000FEF7C0FB2C4BE25C0393022A09D111336F
:104D0000E05CFF2805D008214643AE197156FEF736
:104D1000B1FB8C26B600A05DFF2819D00121FEF75B
:104D200031FB1822A35D21495A43AB56AD18DB0174
:104D300058188D21890060501D4901225B188E2171
:104D40008900635069688A408F21890062501A6027
:104D50000122029B11002069FEF71EFD3900200090
:104D6000FFF790FF390005002000FFF79FFF390093
:104D700006002000FFF780FF330000902900206923
:104D80000122FEF729FC0B4B2069E25C039BE15CEE
:104D9000FEF73FFC2069FEF75CFC05B0F0BDC046A5
:104DA000A89D00002D0200002F02000018440041C1
:104DB000144400412E020000802210B5040052006D
:104DC000002104F072FA23000022FC335A60200014
:104DD0009A60DA6010BD0000F7B51D0008AB1B78C3
:104DE0000400009309AB1B78160001930023436075
:104DF000FA239B008360114B0F00083303601430CB
:104E0000FFF7DAFF20002130FF30FFF7D5FF8B23BB
:104E10006A469B002761E654094B1278E554094B1A
:104E20002000E2546A46084B1279E2548C22313B4E
:104E3000FF3B9200A3541032A354FEBDACA200006D
:104E40002D0200002E0200002F020000F7B5EFF344
:104E5000108300930123019372B680260200FF2580
:104E6000019BFC327600013B5C1C0FD0D4685F1EB6
:104E7000B44209D054680155546801342C40546040
:104E8000D4680134D460EEE73B00EDE76846019357
:104E9000FEF719FFF7BD13B5EFF31083009301235D
:104EA000019372B6019B5A1E0192002B15D003008C
:104EB000FC33DA68002A0DD09A68845C9A68013263
:104EC000D2B29A60DA68013ADA606846FEF7FBFE11
:104ED000200016BD01246442F7E701246846FEF76E
:104EE000F2FE6442F4E710B504000069FEF7D9FB56
:104EF000002805D02069FEF7E4FB2069FEF7D6FB09
:104F00002069FEF7BEFB00281BD02069FEF7D9FB05
:104F1000010020001430FFF799FF8C239B00E35C15
:104F2000FF2B0ED02300FC331A6A80235B009B1AF0
:104F3000092B06DC8D238F229B009200E358A25898
:104F40001A602069FEF7B8FB00280ED087239B006B
:104F5000E318DB68002B14D020002130FF30FFF76E
:104F60009AFFC1B22069FEF7B0FB2069FEF78EFB05
:104F7000002805D02069FEF78DFB2069FEF77DFB38
:104F800010BD2069FEF7AFFBEFE70000F8B50400A5
:104F900000690D00FEF790FB87239B00E6180028B0
:104FA00002D0F368002B34D001278022F36852002E
:104FB000934223D1EFF310833B4210D1174B5B6830
:104FC000DB05DB0DF1D0103B5BB2002B10DAF13AC0
:104FD0001340083B9B08124A9B009B181B682069E2
:104FE000FEF76AFB0028E0D02000FFF77CFFDCE73B
:104FF0009B08C0330B4A9B009B58F0E720002130F0
:10500000FF302900FFF722FF2069FEF768FB01202F
:10501000F8BD29002069FEF758FBF8E700ED00E035
:105020001CED00E000E100E010B504001430FFF7D3
:1050300032FF8C239B00E35CFF2B0ED02300FC335C
:105040001A6A80235B009B1A0A2B06DD8E238F22AF
:105050009B009200E358A2581A6010BD70B50E0074
:1050600000254468002C0BD0236831005B682000C9
:105070009847002802DB2D18E468F3E701256D420C
:10508000280070BD70B50D004468002C08D023685E
:1050900029009B6820009847002802D1E468F4E7C3
:1050A000200070BD70B50D004468002C07D0236847
:1050B00029002000DB689847E4682D18F5E72C707C
:1050C00070BD70B50D004468002C08D0236829001D
:1050D0001B6820009847002802D1E468F4E720000C
:1050E00070BDF8B542788B790D00017A9B180400E9
:1050F00000208B4222DC6368834219D16560002660
:1051000023786A71EA792B719B182370AB79B342CB
:1051100013D9AB68B7006078DF19FFF799FB3B68DC
:10512000013603606378F6B201336370EEE70B007B
:10513000D9680029FBD1DD60E1E70120F8BD00005E
:1051400070B50126054D064C2B68334203D1200073
:10515000FFF776FB2E60200070BDC046DC0D0020FE
:10516000E00D0020F7B506000D000C008B18019330
:10517000019B671B9C4207D0336821781B68300075
:10518000984701340028F3D13800FEBD70B5040003
:1051900008000D0004F07EF92368020029005B6816
:1051A0002000984770BD10B50B1E02D0FFF7EEFF30
:1051B0000300180010BD10B5FFF7F5FF10BD10B5C6
:1051C000FFF7F1FF10BD10B503681B68984710BDCD
:1051D00010B50249FFF7DAFF10BDC046EEA200008D
:1051E00070B50400FFF7DFFF05002000FFF7F0FFB8
:1051F000401970BDF0B58BB06B4615000022053329
:105200000600DA770800012D00D80A2509AC29002C
:1052100001F000FFCAB2130037330700DBB20929DF
:1052200002D813003033DBB2013C2370002FEED1E3
:1052300021003000FFF7B7FF0BB0F0BDF7B51E003F
:10524000089B05001700002B01DA022308933100A8
:105250003A003300380003F029FE4B49002814D1EE
:105260000122740064085242484B3800210003F0C8
:105270001DFE00280FD10122444B5242380021006C
:1052800001F0D8FF002806D141492800FFF77EFF32
:1052900004002000FEBDE0223E4B12063800310023
:1052A00001F0D2FF002801D03B49EEE7E0223B4B62
:1052B00012063800310001F0B3FF0028F4D10022BB
:1052C00000233800310001F0ABFF002814D02D215D
:1052D0002800FFF778FF80231B060090F6180024B3
:1052E00000202F49089B9C4208DA00222D4B0134F4
:1052F00002F018FCE4B2F5E70090F0E70B000200C2
:105300003100380002F0F2F80F00060001F0EAFF69
:105310000A22019001002800FFF76CFF009B1C1877
:10532000089B002BB5D0019803F04CFE02000B0047
:105330003000390003F072FA06000F0028001A4905
:10534000FFF724FF2418089B5A1E0892A1D3154B7F
:1053500000223000390002F0EFFF0F00060001F0DC
:10536000C1FF0A22010000902800FFF743FF241824
:10537000009803F027FE02000B003000390003F014
:105380004DFA06000F00DEE7E0A20000FFFFEF7F0E
:10539000E4A20000FFFFEF41E8A20000FFFFEFC121
:1053A0000000E03F00002440ECA2000007B5049993
:1053B0000091FFF743FF0EBD37B506990400009139
:1053C000FFF73CFF05002000FFF702FF40193EBD3C
:1053D0007047000010B5FDF72BFF03F025FFFFF726
:1053E000F7FF0120FDF74CFE084C2000FFF740FBC3
:1053F0002000FEF745FDFCF789FEFCF74DFF044B4E
:10540000002BFAD000E000BFF7E7C04620080020DC
:105410000000000010B503F02BFF10BD10B503F025
:1054200031FF10BD30B5204A4B0087B05B08934276
:105430001CDD1E4A934205DD02000B0003F0EEF96D
:1054400007B030BD02AA00F09BF903231840049A6C
:10545000059B01280FD002281CD0002815D00298E7
:1054600003990124009401F0EDF9E9E700220023FB
:1054700000F06EFCE4E700900298039901F0E2F975
:1054800080231B069C466144DAE70298039900F0EA
:105490005FFCD5E70298039900F05AFC80231B06B5
:1054A0009C466144CCE7C046FB21E93FFFFFEF7F0C
:1054B00030B5214A4B0087B05B0893421EDD1F4A7E
:1054C000934205DD02000B0003F0A8F907B030BDE0
:1054D00002AA00F055F903231840049A059B0128FD
:1054E00013D002281DD0002814D00298039900F090
:1054F0002FFC80231B069C466144E7E70023002223
:105500000093002301F09EF9E0E70298039900F070
:105510001FFCDBE7012402980399009401F092F943
:10552000D4E7012402980399009401F08BF98023B9
:105530001B069C466144C9E7FB21E93FFFFFEF7F63
:1055400010B500F061F810BDF0B54746CE4680B505
:105550008DB004000D0000F023FB294B06001B78E2
:105560000F005BB29846013310D022002B002000C0
:10557000290003F09BFC8146002807D1002200236C
:105580002000290001F04CFE002806D1300039002F
:105590000DB00CBC90469946F0BD01230293194B07
:1055A0000694079503934B460A9343460494059546
:1055B000002B15D0002300221900100002F0B2FACF
:1055C000434608900991022B0ED103F027FE2123B8
:1055D00003600A9B0193002B0CD1089E099FD5E71D
:1055E000002300240893099402A801F011FC00286C
:1055F000EFD1EAE703F012FE0A9B01930360ECE7A8
:1056000018000020F4A20000F8B515004746CE4669
:105610005A001C006B4280B52B434B4F5208DB0FE6
:105620001343BB421DD84B005B0898464646434295
:105630000343DB0F89463343BB4212D8434BE31885
:105640002B4339D00226A3171E40CB0F1E434346DF
:10565000034310D1022E47D0032E08D13C483D49C8
:1056600005E002000B002800210001F03FFF0CBC08
:1056700090469946F8BD13002B4320D0BA4224D05F
:10568000B8451CD043469A1A12153C2A2FDC002C30
:1056900030DA3C322EDA00200021012E3ED0022EDC
:1056A00031D0002EE3D02C4A2C4B03F0B7F8284A17
:1056B0002B4B03F0B3F8DAE701F076F9D7E74B4666
:1056C0002348002B0EDB2749D1E790452BD0022E33
:1056D0000AD0032EC2D000200021012EC7D1802184
:1056E0000906C4E72049C2E719481D49BFE7184821
:1056F0001C49D2E72A00230002F014FA01F0E8FA6C
:1057000001F052F9C9E7144A144B03F087F802007C
:105710000B000F48124903F081F8A8E78024240603
:105720000B191900A3E7022E06D0032E09D0084852
:10573000012E04D00D499AE70D480E4997E70E490E
:1057400095E70B480D4992E70000F07F000010C07C
:10575000182D4454FB2109C0075C143326A6A13C34
:10576000FB210940FB21F93FFB21F9BFFB21E93F68
:10577000D221337F7CD90240FB21E9BF7CD902C012
:10578000F0B54E464546DE465746E0B5E14B4C0087
:105790008FB09046894664089C4200DC87E0DE4B6F
:1057A0009C4222DCDD4A002900DC92E0DC4B03F065
:1057B00035F8DB4B06000F009C4200D17EE1D94A50
:1057C000D94B03F02BF802000B00414630000A6071
:1057D0004B60390003F022F8D34BD24A03F01EF895
:1057E000434601259860D9606BE0D04B9C4200DCB9
:1057F0008FE0CF4B9C4200DD55E1CE4A2315924607
:105800009A4451460905631A19001D00040003F06B
:1058100069FB03F09DFB02000B00200029000892A9
:10582000099302F0FBFF0022C34B02F085FD0F003D
:10583000060003F057FB03F08BFB04000D00020091
:105840000B00300039000A940B9502F0E7FF0022AC
:10585000B94B02F071FD002200230C900D9101F074
:10586000D9FC002800D192E1002300222000290069
:1058700001F0D0FC434243410133B04A414601921A
:10588000022208A80092524600F07CFB4B4605001D
:10589000002B16DA802243461206944642465B6885
:1058A000454263445360D3686344D36009E00B000E
:1058B000020041460A604B600022002300258A60F6
:1058C000CB6028000FB03CBC90469946A246AB4640
:1058D000F0BD934B01F00AFE914B06000F009C4275
:1058E00000D13DE18F4A904B01F000FE02000B0019
:1058F000414630000A604B60390002F08FFF894A50
:10590000894B01F0F3FD012543466D429860D96053
:10591000D7E701F0DDF98A4A8A4B06000F0002F052
:105920000BFD0022884B01F0E1FD03F0DBFA0500DE
:1059300003F00EFB794A7A4B0490059102F0FCFCCF
:1059400002000B003000390002F068FF754A0600C3
:105950000F0004980599744B02F0EEFC029003913D
:105960001F2D00DCC7E0029A039B3000390002F0D3
:1059700055FF83468A4653465B0024155B0DE31AA8
:10598000102B6CDD04980599D322674B520502F069
:10599000D3FC02000B00300039000292039302F0A6
:1059A0003DFF0A0001001300069107920200390032
:1059B000300002F033FF029A039B02F02FFF060033
:1059C0000F0004980599614A614B02F0B5FC320062
:1059D0003B0002F023FF069E079F0B0002003900E8
:1059E00030000292039302F019FF4B005B0D8346D7
:1059F0008A46E41A312C32DD04980599B822544BBA
:105A0000920502F099FC03000C000200029303943B
:105A10000B000698079902F001FF02000B00060038
:105A20000F000698079902F0F9FE029A039B02F014
:105A3000F5FE484A0290039104980599464B02F0FE
:105A40007BFC029A039B02F0E9FE02000B0030008F
:105A500039000292039302F0E1FE83468A465A46D9
:105A60005346414630000A604B60390002F0D6FED2
:105A7000029A039B02F0D2FE44460B000200A26091
:105A8000E3604B46002B00DB1BE75B462360802373
:105A90001B065344636080231B069C466144A06040
:105AA000E1606D420DE70B00020002F0B7FE4346D5
:105AB00000259860D9601860596002E7D3221A4B1C
:105AC000520502F0ABFE214A214B0D00040002F00A
:105AD000A5FE02000B00414620000A604B60290031
:105AE00002F09CFE1A4B194A02F098FE434601252B
:105AF0009860D960E5E602000B003000390002F042
:105B00008DFE6B1E154A9B009B5883468A46A34216
:105B1000A5D130E7FB21E93F7BD90240000040548A
:105B2000FB21F93F3163621A61B4D03DFB21394159
:105B3000FFFFEF7FEAFBFFFF000070417CA3000046
:105B400083C8C96D305FE43F0000E03F7370032EEF
:105B50008A19A33BC14920259A837B39FCA2000006
:105B6000D3220C4B520501F0C1FC0B4A0B4B040035
:105B70000D0001F0BBFC02000B00414620000A6052
:105B80004B60290002F04AFE034A044BB9E60323A6
:105B900073E6C04661B4D03D7370032E8A19A33BEF
:105BA000F8B54746CE46674B80B50A000F0019008E
:105BB00005003940994200D19BE004000100002F0C
:105BC00069DD3F1500D1B4E05F4B12039C46802392
:105BD000120B5B0313435B00CA0F67449B184A0018
:105BE000F80703D5D20F5B009B188A0079108C460A
:105BF000002180201624894680030D189D4202DC76
:105C000029185B1B8144D50F5B00013C5B195200D6
:105C10004008002CF1D1002080468020202500275C
:105C2000000609E08B425CD0D40F5B00013DE31815
:105C300052004008002D16D0C4198B42F2DD2718FF
:105C40000E00002C49DB5B1AA242894149425B1AD3
:105C5000121BD40F5B00013D80443100E318520059
:105C60004008002DE8D113434ED143465B08374925
:105C70004A468846494652104244C90702D5802107
:105C800009060B4361460F05BD18180029000CBC1E
:105C900090469946F8BD7B005B0803433900002B12
:105CA000F5D0002F3CD1E30A153A6405002BFAD059
:105CB0008020400303423FD1002700E00F005B003B
:105CC000791C0342FAD0250020208D40401A29007B
:105CD000D71B2200C2401A4376E7FE43F60F8E1907
:105CE000B1E79442A0D82718002CF6DB1E00002351
:105CF000AEE702003B002800390002F01DFB2A003D
:105D00003B0001F0F3FBC2E74346013303D04346B7
:105D100001335B08ABE7012398460023C144A6E7A3
:105D20003B00020002F07AFD02000B0001F0FAFED7
:105D3000ADE713000022BBE70127210020207F42AE
:105D4000C6E7C0460000F07F01FCFFFF0000E03F17
:105D5000F0B54746CE4680B587B000920193754BAB
:105D60004F00814688467F089F4263DC03F0BAF803
:105D7000002800D1D4E04A4643464846414602F056
:105D8000DBFA04000D006C4A6C4B02F0D5FA6C4A49
:105D90006C4B01F0ABFB22002B0002F0CDFA6A4AFB
:105DA0006A4B02F03BFD22002B0002F0C5FA684A64
:105DB000684B01F09BFB22002B0002F0BDFA664A03
:105DC000664B02F02BFD22002B0002F0B5FA644A6C
:105DD000644B01F08BFB22002B0002F0ADFA029025
:105DE00003910022604B2000290002F0A5FA029ADC
:105DF000039B06000F002000290002F09DFA009A84
:105E0000019B04000D004846414602F095FA02004D
:105E10000B002000290002F001FD02000B00300001
:105E2000390002F0FBFC02000B0000204F4902F099
:105E3000F5FC70E002000B0002F07EFA04000D0099
:105E40003D4A3E4B02F078FA3D4A3E4B01F04EFB94
:105E500022002B0002F070FA3B4A3C4B02F0DEFCC1
:105E600022002B0002F068FA394A3A4B01F03EFB5F
:105E700022002B0002F060FA374A384B02F0CEFCC9
:105E800022002B0002F058FA354A364B01F02EFB67
:105E90002B00220002F050FA354B029003919F42F2
:105EA0009FDD344B00229F423DDC334900207B18AC
:105EB0002E4916001F0002F0B1FC0490059100224B
:105EC000294B2000290002F037FA32003B0002F093
:105ED000A5FC029A039B06000F002000290002F097
:105EE0002BFA009A019B04000D004846414602F03F
:105EF00023FA02000B002000290002F08FFC0200B0
:105F00000B003000390002F089FC02000B000498FD
:105F1000059902F083FC07B00CBC90469946F0BD91
:105F200000201249F7E7154B002604920593144F01
:105F3000C5E7C046FFFF3F3ED43888BEE9FAA8BD9A
:105F4000C4B1B4BD9EEE213EAD529C804F7E923EC8
:105F50009015CB19A001FA3E7751C1166CC1563F7E
:105F60004C5555555555A53F0000E03F0000F03F0A
:105F70003233D33F0000E93F0000E0FF0000E73F7D
:105F80000000D23FF0B5DE464E4645465746E0B5E6
:105F9000DC4CA5440D9114001900A49A0993DA4B26
:105FA0009200D6584D1E03901821E01E06960295C9
:105FB00001F034F8C3430100DB1719404B1C9A0071
:105FC0009B1ADB001B190B9105934C1B771918D4F6
:105FD000A59BA5009C463F1922AE6544013707E00A
:105FE000286802F0B5FF013403C60435BC4208D06E
:105FF000002CF5DA00200021013403C60435BC4230
:10600000F6D1069B002B01DA00F0FDFB069B0399FD
:106010000133DB009A46099BDA0094460092002285
:10602000914672AA0492B94A6144934688469AAB53
:1060300063449B44029B002B00DABCE15D460026D2
:106040000027039C4D442A686B6803CC02F074F966
:1060500002000B003000390001F048FA083D06004C
:106060000F004445EFD1049B4B441E605F60082342
:106070009C46E144D145DDD10EA804218446494225
:1060800061448C46069A93009C44614684460A917A
:106090000399083B63448C460C93009B0092634435
:1060A0009B46009A0498D10003008C4663440891F3
:1060B0001E685F68002A33DD954980468C4662443D
:1060C000D300984470AB9A460EAB99460022914B90
:1060D0003000390002F030F902F004FF02F038FF1E
:1060E00000228D4B04000D0002F026F902000B0087
:1060F0003000390002F092FB02F0F4FE4B4601C37F
:106100009946434620001A685B68290001F0EEF9C1
:1061100008235B429C46E04406000F00D045D5D1E1
:10612000059B30001A003900984600F073FEFF23EB
:1061300000229B0504000D0002F0FEF800F0CCFDEB
:106140000022764B02F0F8F802000B002000290034
:1061500002F064FB0D00040002F0C4FE814602F070
:10616000F7FE02000B002000290002F057FB06009A
